{
  "contractName": "Token",
  "abi": [
    {
      "inputs": [
        {
          "internalType": "string",
          "name": "name",
          "type": "string"
        },
        {
          "internalType": "string",
          "name": "symbol",
          "type": "string"
        }
      ],
      "stateMutability": "nonpayable",
      "type": "constructor"
    },
    {
      "anonymous": false,
      "inputs": [
        {
          "indexed": true,
          "internalType": "address",
          "name": "owner",
          "type": "address"
        },
        {
          "indexed": true,
          "internalType": "address",
          "name": "approved",
          "type": "address"
        },
        {
          "indexed": true,
          "internalType": "uint256",
          "name": "tokenId",
          "type": "uint256"
        }
      ],
      "name": "Approval",
      "type": "event"
    },
    {
      "anonymous": false,
      "inputs": [
        {
          "indexed": true,
          "internalType": "address",
          "name": "owner",
          "type": "address"
        },
        {
          "indexed": true,
          "internalType": "address",
          "name": "operator",
          "type": "address"
        },
        {
          "indexed": false,
          "internalType": "bool",
          "name": "approved",
          "type": "bool"
        }
      ],
      "name": "ApprovalForAll",
      "type": "event"
    },
    {
      "anonymous": false,
      "inputs": [
        {
          "indexed": true,
          "internalType": "address",
          "name": "previousOwner",
          "type": "address"
        },
        {
          "indexed": true,
          "internalType": "address",
          "name": "newOwner",
          "type": "address"
        }
      ],
      "name": "OwnershipTransferred",
      "type": "event"
    },
    {
      "anonymous": false,
      "inputs": [
        {
          "indexed": true,
          "internalType": "address",
          "name": "from",
          "type": "address"
        },
        {
          "indexed": true,
          "internalType": "address",
          "name": "to",
          "type": "address"
        },
        {
          "indexed": true,
          "internalType": "uint256",
          "name": "tokenId",
          "type": "uint256"
        }
      ],
      "name": "Transfer",
      "type": "event"
    },
    {
      "inputs": [
        {
          "internalType": "address",
          "name": "to",
          "type": "address"
        },
        {
          "internalType": "uint256",
          "name": "tokenId",
          "type": "uint256"
        }
      ],
      "name": "approve",
      "outputs": [],
      "stateMutability": "nonpayable",
      "type": "function"
    },
    {
      "inputs": [
        {
          "internalType": "address",
          "name": "owner",
          "type": "address"
        }
      ],
      "name": "balanceOf",
      "outputs": [
        {
          "internalType": "uint256",
          "name": "",
          "type": "uint256"
        }
      ],
      "stateMutability": "view",
      "type": "function"
    },
    {
      "inputs": [
        {
          "internalType": "uint256",
          "name": "tokenId",
          "type": "uint256"
        }
      ],
      "name": "getApproved",
      "outputs": [
        {
          "internalType": "address",
          "name": "",
          "type": "address"
        }
      ],
      "stateMutability": "view",
      "type": "function"
    },
    {
      "inputs": [
        {
          "internalType": "address",
          "name": "owner",
          "type": "address"
        },
        {
          "internalType": "address",
          "name": "operator",
          "type": "address"
        }
      ],
      "name": "isApprovedForAll",
      "outputs": [
        {
          "internalType": "bool",
          "name": "",
          "type": "bool"
        }
      ],
      "stateMutability": "view",
      "type": "function"
    },
    {
      "inputs": [],
      "name": "name",
      "outputs": [
        {
          "internalType": "string",
          "name": "",
          "type": "string"
        }
      ],
      "stateMutability": "view",
      "type": "function"
    },
    {
      "inputs": [],
      "name": "owner",
      "outputs": [
        {
          "internalType": "address",
          "name": "",
          "type": "address"
        }
      ],
      "stateMutability": "view",
      "type": "function"
    },
    {
      "inputs": [
        {
          "internalType": "uint256",
          "name": "tokenId",
          "type": "uint256"
        }
      ],
      "name": "ownerOf",
      "outputs": [
        {
          "internalType": "address",
          "name": "",
          "type": "address"
        }
      ],
      "stateMutability": "view",
      "type": "function"
    },
    {
      "inputs": [],
      "name": "renounceOwnership",
      "outputs": [],
      "stateMutability": "nonpayable",
      "type": "function"
    },
    {
      "inputs": [
        {
          "internalType": "address",
          "name": "from",
          "type": "address"
        },
        {
          "internalType": "address",
          "name": "to",
          "type": "address"
        },
        {
          "internalType": "uint256",
          "name": "tokenId",
          "type": "uint256"
        }
      ],
      "name": "safeTransferFrom",
      "outputs": [],
      "stateMutability": "nonpayable",
      "type": "function"
    },
    {
      "inputs": [
        {
          "internalType": "address",
          "name": "from",
          "type": "address"
        },
        {
          "internalType": "address",
          "name": "to",
          "type": "address"
        },
        {
          "internalType": "uint256",
          "name": "tokenId",
          "type": "uint256"
        },
        {
          "internalType": "bytes",
          "name": "_data",
          "type": "bytes"
        }
      ],
      "name": "safeTransferFrom",
      "outputs": [],
      "stateMutability": "nonpayable",
      "type": "function"
    },
    {
      "inputs": [
        {
          "internalType": "address",
          "name": "operator",
          "type": "address"
        },
        {
          "internalType": "bool",
          "name": "approved",
          "type": "bool"
        }
      ],
      "name": "setApprovalForAll",
      "outputs": [],
      "stateMutability": "nonpayable",
      "type": "function"
    },
    {
      "inputs": [
        {
          "internalType": "bytes4",
          "name": "interfaceId",
          "type": "bytes4"
        }
      ],
      "name": "supportsInterface",
      "outputs": [
        {
          "internalType": "bool",
          "name": "",
          "type": "bool"
        }
      ],
      "stateMutability": "view",
      "type": "function"
    },
    {
      "inputs": [],
      "name": "symbol",
      "outputs": [
        {
          "internalType": "string",
          "name": "",
          "type": "string"
        }
      ],
      "stateMutability": "view",
      "type": "function"
    },
    {
      "inputs": [
        {
          "internalType": "uint256",
          "name": "tokenId",
          "type": "uint256"
        }
      ],
      "name": "tokenURI",
      "outputs": [
        {
          "internalType": "string",
          "name": "",
          "type": "string"
        }
      ],
      "stateMutability": "view",
      "type": "function"
    },
    {
      "inputs": [
        {
          "internalType": "address",
          "name": "from",
          "type": "address"
        },
        {
          "internalType": "address",
          "name": "to",
          "type": "address"
        },
        {
          "internalType": "uint256",
          "name": "tokenId",
          "type": "uint256"
        }
      ],
      "name": "transferFrom",
      "outputs": [],
      "stateMutability": "nonpayable",
      "type": "function"
    },
    {
      "inputs": [
        {
          "internalType": "address",
          "name": "newOwner",
          "type": "address"
        }
      ],
      "name": "transferOwnership",
      "outputs": [],
      "stateMutability": "nonpayable",
      "type": "function"
    },
    {
      "inputs": [
        {
          "internalType": "uint256",
          "name": "tokenId",
          "type": "uint256"
        }
      ],
      "name": "getTokenDetails",
      "outputs": [
        {
          "components": [
            {
              "internalType": "uint8",
              "name": "damage",
              "type": "uint8"
            },
            {
              "internalType": "uint8",
              "name": "magic",
              "type": "uint8"
            },
            {
              "internalType": "uint256",
              "name": "lastMeal",
              "type": "uint256"
            },
            {
              "internalType": "uint256",
              "name": "endurance",
              "type": "uint256"
            }
          ],
          "internalType": "struct Token.Pet",
          "name": "",
          "type": "tuple"
        }
      ],
      "stateMutability": "view",
      "type": "function"
    },
    {
      "inputs": [
        {
          "internalType": "uint8",
          "name": "damage",
          "type": "uint8"
        },
        {
          "internalType": "uint8",
          "name": "magic",
          "type": "uint8"
        },
        {
          "internalType": "uint256",
          "name": "endurance",
          "type": "uint256"
        }
      ],
      "name": "mint",
      "outputs": [],
      "stateMutability": "nonpayable",
      "type": "function"
    },
    {
      "inputs": [
        {
          "internalType": "uint256",
          "name": "tokenId",
          "type": "uint256"
        }
      ],
      "name": "feed",
      "outputs": [],
      "stateMutability": "nonpayable",
      "type": "function"
    }
  ],
  "bytecode": "0x608060405260006007553480156200001657600080fd5b50604051620031ff380380620031ff83398181016040528101906200003c91906200028a565b818181600090805190602001906200005692919062000168565b5080600190805190602001906200006f92919062000168565b50505062000092620000866200009a60201b60201c565b620000a260201b60201c565b50506200042e565b600033905090565b6000600660009054906101000a900473ffffffffffffffffffffffffffffffffffffffff16905081600660006101000a81548173ffffffffffffffffffffffffffffffffffffffff021916908373ffffffffffffffffffffffffffffffffffffffff1602179055508173ffffffffffffffffffffffffffffffffffffffff168173ffffffffffffffffffffffffffffffffffffffff167f8be0079c531659141344cd1fd0a4f28419497f9722a3daafe3b4186f6b6457e060405160405180910390a35050565b82805462000176906200039a565b90600052602060002090601f0160209004810192826200019a5760008555620001e6565b82601f10620001b557805160ff1916838001178555620001e6565b82800160010185558215620001e6579182015b82811115620001e5578251825591602001919060010190620001c8565b5b509050620001f59190620001f9565b5090565b5b8082111562000214576000816000905550600101620001fa565b5090565b60006200022f620002298462000331565b620002fd565b9050828152602081018484840111156200024857600080fd5b6200025584828562000364565b509392505050565b600082601f8301126200026f57600080fd5b81516200028184826020860162000218565b91505092915050565b600080604083850312156200029e57600080fd5b600083015167ffffffffffffffff811115620002b957600080fd5b620002c7858286016200025d565b925050602083015167ffffffffffffffff811115620002e557600080fd5b620002f3858286016200025d565b9150509250929050565b6000604051905081810181811067ffffffffffffffff82111715620003275762000326620003ff565b5b8060405250919050565b600067ffffffffffffffff8211156200034f576200034e620003ff565b5b601f19601f8301169050602081019050919050565b60005b838110156200038457808201518184015260208101905062000367565b8381111562000394576000848401525b50505050565b60006002820490506001821680620003b357607f821691505b60208210811415620003ca57620003c9620003d0565b5b50919050565b7f4e487b7100000000000000000000000000000000000000000000000000000000600052602260045260246000fd5b7f4e487b7100000000000000000000000000000000000000000000000000000000600052604160045260246000fd5b612dc1806200043e6000396000f3fe608060405234801561001057600080fd5b50600436106101215760003560e01c80638da5cb5b116100ad578063c87b56dd11610071578063c87b56dd14610306578063e985e9c514610336578063eb22ed3214610366578063f2fde38b14610382578063f59dfdfb1461039e57610121565b80638da5cb5b1461026257806395d89b4114610280578063a22cb4651461029e578063b88d4fde146102ba578063c1e03728146102d657610121565b806323b872dd116100f457806323b872dd146101c057806342842e0e146101dc5780636352211e146101f857806370a0823114610228578063715018a61461025857610121565b806301ffc9a71461012657806306fdde0314610156578063081812fc14610174578063095ea7b3146101a4575b600080fd5b610140600480360381019061013b9190611eaa565b6103ba565b60405161014d919061270a565b60405180910390f35b61015e61049c565b60405161016b9190612725565b60405180910390f35b61018e60048036038101906101899190611efc565b61052e565b60405161019b91906126a3565b60405180910390f35b6101be60048036038101906101b99190611e6e565b6105b3565b005b6101da60048036038101906101d59190611d68565b6106cb565b005b6101f660048036038101906101f19190611d68565b61072b565b005b610212600480360381019061020d9190611efc565b61074b565b60405161021f91906126a3565b60405180910390f35b610242600480360381019061023d9190611d03565b6107fd565b60405161024f9190612962565b60405180910390f35b6102606108b5565b005b61026a61093d565b60405161027791906126a3565b60405180910390f35b610288610967565b6040516102959190612725565b60405180910390f35b6102b860048036038101906102b39190611e32565b6109f9565b005b6102d460048036038101906102cf9190611db7565b610b7a565b005b6102f060048036038101906102eb9190611efc565b610bdc565b6040516102fd9190612947565b60405180910390f35b610320600480360381019061031b9190611efc565b610c57565b60405161032d9190612725565b60405180910390f35b610350600480360381019061034b9190611d2c565b610cfe565b60405161035d919061270a565b60405180910390f35b610380600480360381019061037b9190611f25565b610d92565b005b61039c60048036038101906103979190611d03565b610ecc565b005b6103b860048036038101906103b39190611efc565b610fc4565b005b60007f80ac58cd000000000000000000000000000000000000000000000000000000007bffffffffffffffffffffffffffffffffffffffffffffffffffffffff1916827bffffffffffffffffffffffffffffffffffffffffffffffffffffffff1916148061048557507f5b5e139f000000000000000000000000000000000000000000000000000000007bffffffffffffffffffffffffffffffffffffffffffffffffffffffff1916827bffffffffffffffffffffffffffffffffffffffffffffffffffffffff1916145b80610495575061049482611009565b5b9050919050565b6060600080546104ab90612b9f565b80601f01602080910402602001604051908101604052809291908181526020018280546104d790612b9f565b80156105245780601f106104f957610100808354040283529160200191610524565b820191906000526020600020905b81548152906001019060200180831161050757829003601f168201915b5050505050905090565b600061053982611073565b610578576040517f08c379a000000000000000000000000000000000000000000000000000000000815260040161056f90612887565b60405180910390fd5b6004600083815260200190815260200160002060009054906101000a900473ffffffffffffffffffffffffffffffffffffffff169050919050565b60006105be8261074b565b90508073ffffffffffffffffffffffffffffffffffffffff168373ffffffffffffffffffffffffffffffffffffffff16141561062f576040517f08c379a000000000000000000000000000000000000000000000000000000000815260040161062690612907565b60405180910390fd5b8073ffffffffffffffffffffffffffffffffffffffff1661064e6110df565b73ffffffffffffffffffffffffffffffffffffffff16148061067d575061067c816106776110df565b610cfe565b5b6106bc576040517f08c379a00000000000000000000000000000000000000000000000000000000081526004016106b390612807565b60405180910390fd5b6106c683836110e7565b505050565b6106dc6106d66110df565b826111a0565b61071b576040517f08c379a000000000000000000000000000000000000000000000000000000000815260040161071290612927565b60405180910390fd5b61072683838361127e565b505050565b61074683838360405180602001604052806000815250610b7a565b505050565b6000806002600084815260200190815260200160002060009054906101000a900473ffffffffffffffffffffffffffffffffffffffff169050600073ffffffffffffffffffffffffffffffffffffffff168173ffffffffffffffffffffffffffffffffffffffff1614156107f4576040517f08c379a00000000000000000000000000000000000000000000000000000000081526004016107eb90612847565b60405180910390fd5b80915050919050565b60008073ffffffffffffffffffffffffffffffffffffffff168273ffffffffffffffffffffffffffffffffffffffff16141561086e576040517f08c379a000000000000000000000000000000000000000000000000000000000815260040161086590612827565b60405180910390fd5b600360008373ffffffffffffffffffffffffffffffffffffffff1673ffffffffffffffffffffffffffffffffffffffff168152602001908152602001600020549050919050565b6108bd6110df565b73ffffffffffffffffffffffffffffffffffffffff166108db61093d565b73ffffffffffffffffffffffffffffffffffffffff1614610931576040517f08c379a0000000000000000000000000000000000000000000000000000000008152600401610928906128a7565b60405180910390fd5b61093b60006114da565b565b6000600660009054906101000a900473ffffffffffffffffffffffffffffffffffffffff16905090565b60606001805461097690612b9f565b80601f01602080910402602001604051908101604052809291908181526020018280546109a290612b9f565b80156109ef5780601f106109c4576101008083540402835291602001916109ef565b820191906000526020600020905b8154815290600101906020018083116109d257829003601f168201915b5050505050905090565b610a016110df565b73ffffffffffffffffffffffffffffffffffffffff168273ffffffffffffffffffffffffffffffffffffffff161415610a6f576040517f08c379a0000000000000000000000000000000000000000000000000000000008152600401610a66906127c7565b60405180910390fd5b8060056000610a7c6110df565b73ffffffffffffffffffffffffffffffffffffffff1673ffffffffffffffffffffffffffffffffffffffff16815260200190815260200160002060008473ffffffffffffffffffffffffffffffffffffffff1673ffffffffffffffffffffffffffffffffffffffff16815260200190815260200160002060006101000a81548160ff0219169083151502179055508173ffffffffffffffffffffffffffffffffffffffff16610b296110df565b73ffffffffffffffffffffffffffffffffffffffff167f17307eab39ab6107e8899845ad3d59bd9653f200f220920489ca2b5937696c3183604051610b6e919061270a565b60405180910390a35050565b610b8b610b856110df565b836111a0565b610bca576040517f08c379a0000000000000000000000000000000000000000000000000000000008152600401610bc190612927565b60405180910390fd5b610bd6848484846115a0565b50505050565b610be4611bef565b600860008381526020019081526020016000206040518060800160405290816000820160009054906101000a900460ff1660ff1660ff1681526020016000820160019054906101000a900460ff1660ff1660ff168152602001600182015481526020016002820154815250509050919050565b6060610c6282611073565b610ca1576040517f08c379a0000000000000000000000000000000000000000000000000000000008152600401610c98906128e7565b60405180910390fd5b6000610cab6115fc565b90506000815111610ccb5760405180602001604052806000815250610cf6565b80610cd584611613565b604051602001610ce692919061267f565b6040516020818303038152906040525b915050919050565b6000600560008473ffffffffffffffffffffffffffffffffffffffff1673ffffffffffffffffffffffffffffffffffffffff16815260200190815260200160002060008373ffffffffffffffffffffffffffffffffffffffff1673ffffffffffffffffffffffffffffffffffffffff16815260200190815260200160002060009054906101000a900460ff16905092915050565b610d9a6110df565b73ffffffffffffffffffffffffffffffffffffffff16610db861093d565b73ffffffffffffffffffffffffffffffffffffffff1614610e0e576040517f08c379a0000000000000000000000000000000000000000000000000000000008152600401610e05906128a7565b60405180910390fd5b610e1a336007546117c0565b60405180608001604052808460ff1681526020018360ff1681526020014281526020018281525060086000600754815260200190815260200160002060008201518160000160006101000a81548160ff021916908360ff16021790555060208201518160000160016101000a81548160ff021916908360ff160217905550604082015181600101556060820151816002015590505060076000815480929190610ec290612bd1565b9190505550505050565b610ed46110df565b73ffffffffffffffffffffffffffffffffffffffff16610ef261093d565b73ffffffffffffffffffffffffffffffffffffffff1614610f48576040517f08c379a0000000000000000000000000000000000000000000000000000000008152600401610f3f906128a7565b60405180910390fd5b600073ffffffffffffffffffffffffffffffffffffffff168173ffffffffffffffffffffffffffffffffffffffff161415610fb8576040517f08c379a0000000000000000000000000000000000000000000000000000000008152600401610faf90612767565b60405180910390fd5b610fc1816114da565b50565b600060086000600754815260200190815260200160002090504281600201548260010154610ff29190612a21565b11610ffc57600080fd5b4281600101819055505050565b60007f01ffc9a7000000000000000000000000000000000000000000000000000000007bffffffffffffffffffffffffffffffffffffffffffffffffffffffff1916827bffffffffffffffffffffffffffffffffffffffffffffffffffffffff1916149050919050565b60008073ffffffffffffffffffffffffffffffffffffffff166002600084815260200190815260200160002060009054906101000a900473ffffffffffffffffffffffffffffffffffffffff1673ffffffffffffffffffffffffffffffffffffffff1614159050919050565b600033905090565b816004600083815260200190815260200160002060006101000a81548173ffffffffffffffffffffffffffffffffffffffff021916908373ffffffffffffffffffffffffffffffffffffffff160217905550808273ffffffffffffffffffffffffffffffffffffffff1661115a8361074b565b73ffffffffffffffffffffffffffffffffffffffff167f8c5be1e5ebec7d5bd14f71427d1e84f3dd0314c0f7b2291e5b200ac8c7c3b92560405160405180910390a45050565b60006111ab82611073565b6111ea576040517f08c379a00000000000000000000000000000000000000000000000000000000081526004016111e1906127e7565b60405180910390fd5b60006111f58361074b565b90508073ffffffffffffffffffffffffffffffffffffffff168473ffffffffffffffffffffffffffffffffffffffff16148061126457508373ffffffffffffffffffffffffffffffffffffffff1661124c8461052e565b73ffffffffffffffffffffffffffffffffffffffff16145b8061127557506112748185610cfe565b5b91505092915050565b8273ffffffffffffffffffffffffffffffffffffffff1661129e8261074b565b73ffffffffffffffffffffffffffffffffffffffff16146112f4576040517f08c379a00000000000000000000000000000000000000000000000000000000081526004016112eb906128c7565b60405180910390fd5b600073ffffffffffffffffffffffffffffffffffffffff168273ffffffffffffffffffffffffffffffffffffffff161415611364576040517f08c379a000000000000000000000000000000000000000000000000000000000815260040161135b906127a7565b60405180910390fd5b61136f8383836117de565b61137a6000826110e7565b6001600360008573ffffffffffffffffffffffffffffffffffffffff1673ffffffffffffffffffffffffffffffffffffffff16815260200190815260200160002060008282546113ca9190612aa8565b925050819055506001600360008473ffffffffffffffffffffffffffffffffffffffff1673ffffffffffffffffffffffffffffffffffffffff16815260200190815260200160002060008282546114219190612a21565b92505081905550816002600083815260200190815260200160002060006101000a81548173ffffffffffffffffffffffffffffffffffffffff021916908373ffffffffffffffffffffffffffffffffffffffff160217905550808273ffffffffffffffffffffffffffffffffffffffff168473ffffffffffffffffffffffffffffffffffffffff167fddf252ad1be2c89b69c2b068fc378daa952ba7f163c4a11628f55a4df523b3ef60405160405180910390a4505050565b6000600660009054906101000a900473ffffffffffffffffffffffffffffffffffffffff16905081600660006101000a81548173ffffffffffffffffffffffffffffffffffffffff021916908373ffffffffffffffffffffffffffffffffffffffff1602179055508173ffffffffffffffffffffffffffffffffffffffff168173ffffffffffffffffffffffffffffffffffffffff167f8be0079c531659141344cd1fd0a4f28419497f9722a3daafe3b4186f6b6457e060405160405180910390a35050565b6115ab84848461127e565b6115b78484848461181c565b6115f6576040517f08c379a00000000000000000000000000000000000000000000000000000000081526004016115ed90612747565b60405180910390fd5b50505050565b606060405180602001604052806000815250905090565b6060600082141561165b576040518060400160405280600181526020017f300000000000000000000000000000000000000000000000000000000000000081525090506117bb565b600082905060005b6000821461168d57808061167690612bd1565b915050600a826116869190612a77565b9150611663565b60008167ffffffffffffffff8111156116cf577f4e487b7100000000000000000000000000000000000000000000000000000000600052604160045260246000fd5b6040519080825280601f01601f1916602001820160405280156117015781602001600182028036833780820191505090505b5090505b600085146117b45760018261171a9190612aa8565b9150600a856117299190612c1a565b60306117359190612a21565b60f81b818381518110611771577f4e487b7100000000000000000000000000000000000000000000000000000000600052603260045260246000fd5b60200101907effffffffffffffffffffffffffffffffffffffffffffffffffffffffffffff1916908160001a905350600a856117ad9190612a77565b9450611705565b8093505050505b919050565b6117da8282604051806020016040528060008152506119b3565b5050565b60006008600060075481526020019081526020016000209050428160020154826001015461180c9190612a21565b1161181657600080fd5b50505050565b600061183d8473ffffffffffffffffffffffffffffffffffffffff16611a0e565b156119a6578373ffffffffffffffffffffffffffffffffffffffff1663150b7a026118666110df565b8786866040518563ffffffff1660e01b815260040161188894939291906126be565b602060405180830381600087803b1580156118a257600080fd5b505af19250505080156118d357506040513d601f19601f820116820180604052508101906118d09190611ed3565b60015b611956573d8060008114611903576040519150601f19603f3d011682016040523d82523d6000602084013e611908565b606091505b5060008151141561194e576040517f08c379a000000000000000000000000000000000000000000000000000000000815260040161194590612747565b60405180910390fd5b805181602001fd5b63150b7a0260e01b7bffffffffffffffffffffffffffffffffffffffffffffffffffffffff1916817bffffffffffffffffffffffffffffffffffffffffffffffffffffffff1916149150506119ab565b600190505b949350505050565b6119bd8383611a21565b6119ca600084848461181c565b611a09576040517f08c379a0000000000000000000000000000000000000000000000000000000008152600401611a0090612747565b60405180910390fd5b505050565b600080823b905060008111915050919050565b600073ffffffffffffffffffffffffffffffffffffffff168273ffffffffffffffffffffffffffffffffffffffff161415611a91576040517f08c379a0000000000000000000000000000000000000000000000000000000008152600401611a8890612867565b60405180910390fd5b611a9a81611073565b15611ada576040517f08c379a0000000000000000000000000000000000000000000000000000000008152600401611ad190612787565b60405180910390fd5b611ae6600083836117de565b6001600360008473ffffffffffffffffffffffffffffffffffffffff1673ffffffffffffffffffffffffffffffffffffffff1681526020019081526020016000206000828254611b369190612a21565b92505081905550816002600083815260200190815260200160002060006101000a81548173ffffffffffffffffffffffffffffffffffffffff021916908373ffffffffffffffffffffffffffffffffffffffff160217905550808273ffffffffffffffffffffffffffffffffffffffff16600073ffffffffffffffffffffffffffffffffffffffff167fddf252ad1be2c89b69c2b068fc378daa952ba7f163c4a11628f55a4df523b3ef60405160405180910390a45050565b6040518060800160405280600060ff168152602001600060ff16815260200160008152602001600081525090565b6000611c30611c2b846129ae565b61297d565b905082815260208101848484011115611c4857600080fd5b611c53848285612b5d565b509392505050565b600081359050611c6a81612d18565b92915050565b600081359050611c7f81612d2f565b92915050565b600081359050611c9481612d46565b92915050565b600081519050611ca981612d46565b92915050565b600082601f830112611cc057600080fd5b8135611cd0848260208601611c1d565b91505092915050565b600081359050611ce881612d5d565b92915050565b600081359050611cfd81612d74565b92915050565b600060208284031215611d1557600080fd5b6000611d2384828501611c5b565b91505092915050565b60008060408385031215611d3f57600080fd5b6000611d4d85828601611c5b565b9250506020611d5e85828601611c5b565b9150509250929050565b600080600060608486031215611d7d57600080fd5b6000611d8b86828701611c5b565b9350506020611d9c86828701611c5b565b9250506040611dad86828701611cd9565b9150509250925092565b60008060008060808587031215611dcd57600080fd5b6000611ddb87828801611c5b565b9450506020611dec87828801611c5b565b9350506040611dfd87828801611cd9565b925050606085013567ffffffffffffffff811115611e1a57600080fd5b611e2687828801611caf565b91505092959194509250565b60008060408385031215611e4557600080fd5b6000611e5385828601611c5b565b9250506020611e6485828601611c70565b9150509250929050565b60008060408385031215611e8157600080fd5b6000611e8f85828601611c5b565b9250506020611ea085828601611cd9565b9150509250929050565b600060208284031215611ebc57600080fd5b6000611eca84828501611c85565b91505092915050565b600060208284031215611ee557600080fd5b6000611ef384828501611c9a565b91505092915050565b600060208284031215611f0e57600080fd5b6000611f1c84828501611cd9565b91505092915050565b600080600060608486031215611f3a57600080fd5b6000611f4886828701611cee565b9350506020611f5986828701611cee565b9250506040611f6a86828701611cd9565b9150509250925092565b611f7d81612adc565b82525050565b611f8c81612aee565b82525050565b6000611f9d826129de565b611fa781856129f4565b9350611fb7818560208601612b6c565b611fc081612d07565b840191505092915050565b6000611fd6826129e9565b611fe08185612a05565b9350611ff0818560208601612b6c565b611ff981612d07565b840191505092915050565b600061200f826129e9565b6120198185612a16565b9350612029818560208601612b6c565b80840191505092915050565b6000612042603283612a05565b91507f4552433732313a207472616e7366657220746f206e6f6e20455243373231526560008301527f63656976657220696d706c656d656e74657200000000000000000000000000006020830152604082019050919050565b60006120a8602683612a05565b91507f4f776e61626c653a206e6577206f776e657220697320746865207a65726f206160008301527f64647265737300000000000000000000000000000000000000000000000000006020830152604082019050919050565b600061210e601c83612a05565b91507f4552433732313a20746f6b656e20616c7265616479206d696e746564000000006000830152602082019050919050565b600061214e602483612a05565b91507f4552433732313a207472616e7366657220746f20746865207a65726f2061646460008301527f72657373000000000000000000000000000000000000000000000000000000006020830152604082019050919050565b60006121b4601983612a05565b91507f4552433732313a20617070726f766520746f2063616c6c6572000000000000006000830152602082019050919050565b60006121f4602c83612a05565b91507f4552433732313a206f70657261746f7220717565727920666f72206e6f6e657860008301527f697374656e7420746f6b656e00000000000000000000000000000000000000006020830152604082019050919050565b600061225a603883612a05565b91507f4552433732313a20617070726f76652063616c6c6572206973206e6f74206f7760008301527f6e6572206e6f7220617070726f76656420666f7220616c6c00000000000000006020830152604082019050919050565b60006122c0602a83612a05565b91507f4552433732313a2062616c616e636520717565727920666f7220746865207a6560008301527f726f2061646472657373000000000000000000000000000000000000000000006020830152604082019050919050565b6000612326602983612a05565b91507f4552433732313a206f776e657220717565727920666f72206e6f6e657869737460008301527f656e7420746f6b656e00000000000000000000000000000000000000000000006020830152604082019050919050565b600061238c602083612a05565b91507f4552433732313a206d696e7420746f20746865207a65726f20616464726573736000830152602082019050919050565b60006123cc602c83612a05565b91507f4552433732313a20617070726f76656420717565727920666f72206e6f6e657860008301527f697374656e7420746f6b656e00000000000000000000000000000000000000006020830152604082019050919050565b6000612432602083612a05565b91507f4f776e61626c653a2063616c6c6572206973206e6f7420746865206f776e65726000830152602082019050919050565b6000612472602983612a05565b91507f4552433732313a207472616e73666572206f6620746f6b656e2074686174206960008301527f73206e6f74206f776e00000000000000000000000000000000000000000000006020830152604082019050919050565b60006124d8602f83612a05565b91507f4552433732314d657461646174613a2055524920717565727920666f72206e6f60008301527f6e6578697374656e7420746f6b656e00000000000000000000000000000000006020830152604082019050919050565b600061253e602183612a05565b91507f4552433732313a20617070726f76616c20746f2063757272656e74206f776e6560008301527f72000000000000000000000000000000000000000000000000000000000000006020830152604082019050919050565b60006125a4603183612a05565b91507f4552433732313a207472616e736665722063616c6c6572206973206e6f74206f60008301527f776e6572206e6f7220617070726f7665640000000000000000000000000000006020830152604082019050919050565b6080820160008201516126136000850182612670565b5060208201516126266020850182612670565b5060408201516126396040850182612652565b50606082015161264c6060850182612652565b50505050565b61265b81612b46565b82525050565b61266a81612b46565b82525050565b61267981612b50565b82525050565b600061268b8285612004565b91506126978284612004565b91508190509392505050565b60006020820190506126b86000830184611f74565b92915050565b60006080820190506126d36000830187611f74565b6126e06020830186611f74565b6126ed6040830185612661565b81810360608301526126ff8184611f92565b905095945050505050565b600060208201905061271f6000830184611f83565b92915050565b6000602082019050818103600083015261273f8184611fcb565b905092915050565b6000602082019050818103600083015261276081612035565b9050919050565b600060208201905081810360008301526127808161209b565b9050919050565b600060208201905081810360008301526127a081612101565b9050919050565b600060208201905081810360008301526127c081612141565b9050919050565b600060208201905081810360008301526127e0816121a7565b9050919050565b60006020820190508181036000830152612800816121e7565b9050919050565b600060208201905081810360008301526128208161224d565b9050919050565b60006020820190508181036000830152612840816122b3565b9050919050565b6000602082019050818103600083015261286081612319565b9050919050565b600060208201905081810360008301526128808161237f565b9050919050565b600060208201905081810360008301526128a0816123bf565b9050919050565b600060208201905081810360008301526128c081612425565b9050919050565b600060208201905081810360008301526128e081612465565b9050919050565b60006020820190508181036000830152612900816124cb565b9050919050565b6000602082019050818103600083015261292081612531565b9050919050565b6000602082019050818103600083015261294081612597565b9050919050565b600060808201905061295c60008301846125fd565b92915050565b60006020820190506129776000830184612661565b92915050565b6000604051905081810181811067ffffffffffffffff821117156129a4576129a3612cd8565b5b8060405250919050565b600067ffffffffffffffff8211156129c9576129c8612cd8565b5b601f19601f8301169050602081019050919050565b600081519050919050565b600081519050919050565b600082825260208201905092915050565b600082825260208201905092915050565b600081905092915050565b6000612a2c82612b46565b9150612a3783612b46565b9250827fffffffffffffffffffffffffffffffffffffffffffffffffffffffffffffffff03821115612a6c57612a6b612c4b565b5b828201905092915050565b6000612a8282612b46565b9150612a8d83612b46565b925082612a9d57612a9c612c7a565b5b828204905092915050565b6000612ab382612b46565b9150612abe83612b46565b925082821015612ad157612ad0612c4b565b5b828203905092915050565b6000612ae782612b26565b9050919050565b60008115159050919050565b60007fffffffff0000000000000000000000000000000000000000000000000000000082169050919050565b600073ffffffffffffffffffffffffffffffffffffffff82169050919050565b6000819050919050565b600060ff82169050919050565b82818337600083830152505050565b60005b83811015612b8a578082015181840152602081019050612b6f565b83811115612b99576000848401525b50505050565b60006002820490506001821680612bb757607f821691505b60208210811415612bcb57612bca612ca9565b5b50919050565b6000612bdc82612b46565b91507fffffffffffffffffffffffffffffffffffffffffffffffffffffffffffffffff821415612c0f57612c0e612c4b565b5b600182019050919050565b6000612c2582612b46565b9150612c3083612b46565b925082612c4057612c3f612c7a565b5b828206905092915050565b7f4e487b7100000000000000000000000000000000000000000000000000000000600052601160045260246000fd5b7f4e487b7100000000000000000000000000000000000000000000000000000000600052601260045260246000fd5b7f4e487b7100000000000000000000000000000000000000000000000000000000600052602260045260246000fd5b7f4e487b7100000000000000000000000000000000000000000000000000000000600052604160045260246000fd5b6000601f19601f8301169050919050565b612d2181612adc565b8114612d2c57600080fd5b50565b612d3881612aee565b8114612d4357600080fd5b50565b612d4f81612afa565b8114612d5a57600080fd5b50565b612d6681612b46565b8114612d7157600080fd5b50565b612d7d81612b50565b8114612d8857600080fd5b5056fea26469706673582212201727b28d43b2b15fc5f3c18ee68b6a8ecfd0f36a2b85acf59520a531da19fee164736f6c63430008000033",
  "immutableReferences": {},
  "source": "pragma solidity 0.8.0;\r\n\r\nimport \"../node_modules/@openzeppelin/contracts/token/ERC721/ERC721.sol\";\r\nimport \"../node_modules/@openzeppelin/contracts/access/Ownable.sol\";\r\n\r\n\r\ncontract Token is ERC721, Ownable {\r\n\r\n    struct Pet {\r\n        uint8 damage;\r\n        uint8 magic;\r\n        uint256 lastMeal;\r\n        uint256 endurance;// 24 hours\r\n    }\r\n\r\n    uint256 nextId = 0;\r\n\r\n    mapping( uint256 => Pet) private _tokenDetails;\r\n\r\n    constructor(string memory name, string memory symbol) ERC721(name, symbol){\r\n\r\n    }\r\n\r\n    function getTokenDetails(uint256 tokenId) public view returns (Pet memory){\r\n        return _tokenDetails[tokenId];\r\n    }\r\n\r\n    function mint(uint8 damage, uint8 magic, uint256 endurance) public onlyOwner {\r\n        _safeMint(msg.sender, nextId);\r\n        \r\n        _tokenDetails[nextId] = Pet(damage, magic, block.timestamp, endurance);\r\n        nextId++;\r\n    }\r\n\r\n    function feed(uint256 tokenId) public {\r\n        Pet storage pet = _tokenDetails[nextId];\r\n        require(pet.lastMeal + pet.endurance > block.timestamp);\r\n        pet.lastMeal = block.timestamp;\r\n    }\r\n\r\n    function _beforeTokenTransfer(address from, address to, uint256 tokenId) internal override {\r\n        Pet storage pet = _tokenDetails[nextId];\r\n        require(pet.lastMeal + pet.endurance > block.timestamp);\r\n    }               \r\n}\r\n",
  "sourcePath": "C:\\Users\\MIK-MIK\\Desktop\\nftgame\\contracts\\Token.sol",
  "compiler": {
    "name": "solc",
    "version": "0.8.0+commit.c7dfd78e.Emscripten.clang"
  },
  "schemaVersion": "3.4.2",
  "updatedAt": "2021-08-05T06:40:27.222Z",
  "devdoc": {
    "kind": "dev",
    "methods": {
      "approve(address,uint256)": {
        "details": "See {IERC721-approve}."
      },
      "balanceOf(address)": {
        "details": "See {IERC721-balanceOf}."
      },
      "getApproved(uint256)": {
        "details": "See {IERC721-getApproved}."
      },
      "isApprovedForAll(address,address)": {
        "details": "See {IERC721-isApprovedForAll}."
      },
      "name()": {
        "details": "See {IERC721Metadata-name}."
      },
      "owner()": {
        "details": "Returns the address of the current owner."
      },
      "ownerOf(uint256)": {
        "details": "See {IERC721-ownerOf}."
      },
      "renounceOwnership()": {
        "details": "Leaves the contract without owner. It will not be possible to call `onlyOwner` functions anymore. Can only be called by the current owner. NOTE: Renouncing ownership will leave the contract without an owner, thereby removing any functionality that is only available to the owner."
      },
      "safeTransferFrom(address,address,uint256)": {
        "details": "See {IERC721-safeTransferFrom}."
      },
      "safeTransferFrom(address,address,uint256,bytes)": {
        "details": "See {IERC721-safeTransferFrom}."
      },
      "setApprovalForAll(address,bool)": {
        "details": "See {IERC721-setApprovalForAll}."
      },
      "supportsInterface(bytes4)": {
        "details": "See {IERC165-supportsInterface}."
      },
      "symbol()": {
        "details": "See {IERC721Metadata-symbol}."
      },
      "tokenURI(uint256)": {
        "details": "See {IERC721Metadata-tokenURI}."
      },
      "transferFrom(address,address,uint256)": {
        "details": "See {IERC721-transferFrom}."
      },
      "transferOwnership(address)": {
        "details": "Transfers ownership of the contract to a new account (`newOwner`). Can only be called by the current owner."
      }
    },
    "version": 1
  },
  "userdoc": {
    "kind": "user",
    "methods": {},
    "version": 1
  }
}